:020000020000FC
:1000000004E0202E03E0302E02E0402E01E0502ECE
:1000100002E0602E04E0702E08E0802E00E1902EB9
:100020001FEF17BB11BB0DE415E03FD0FCCF0F93C2
:10003000012FE6E4F0E00A9512F03196FCCF04912E
:10004000102F0F9108953F065B4F666D7D07FF6F80
:100050004F935F938F939F9341E051E08FEF9FEF1A
:10006000899708F0FDCF51504040C1F79F918F9183
:100070005F914F9108958F939F938FEF9FEF899793
:1000800008F0FDCF9F918F9108958F939F9380E00B
:1000900090E003C0021B130B019602171307D0F761
:1000A000282F392F9F918F91089528EE33E0EDDFAF
:1000B000622F24E630E0E9DF722F2AE030E0E5DF4E
:1000C000822F902F062F172F282F392F662777275B
:1000D0008827992708952F933F9328EE33E0D5DFA3
:1000E000622F24E63327D1DF722F2AE03327CDDFBA
:1000F000822F902F062F172F282F392F662777272B
:06010000882799270895ED
:00000001FF
