:020000020000FC
:1000000000E0202E00E0302E00E0402E00E0502ED8
:1000100002E0602E04E0702E08E0802E00E1902EB9
:100020001FEF17BB11BB3F931F93152D5F9242D05B
:10003000512E68BA332732BB52BA4DD05F901F9110
:100040003F913F931F93142D4F9234D0412E78BA95
:10005000332732BB42BA3FD04F901F913F913F931D
:100060001F93132D3F9226D0312E88BA332732BBEF
:1000700032BA31D03F901F913F913F931F93122D81
:100080002F9218D0212E98BA332732BB22BA23D010
:100090002F901F913F9151E04427050E141E002D13
:1000A000112D20E137E234D043D0502E412E322E94
:1000B000232EB9CF0F93012FECECF0E00A9512F04C
:1000C0003196FCCF0491102F0F9108953F065B4F9E
:1000D000666D7D07FF6F4F935F938F939F9340E013
:1000E00051E08FEF9FEF899708F0FDCF51504040CE
:1000F000C1F79F918F915F914F9108958F939F9337
:100100008FEF9FEF899708F0FDCF9F918F91089512
:100110008F939F9380E090E003C0021B130B019626
:1001200002171307D0F7282F392F9F918F91089529
:1001300028EE33E0EDDF622F24E630E0E9DF722FB6
:100140002AE030E0E5DF822F902F062F172F282F8F
:0C015000392F6627772788279927089504
:00000001FF
