:020000020000FC
:10000000E0EFF0E024E110E0442741BB60E0262E61
:1000100061E0362E62E0462E63E0562E64E0662EE6
:1000200065E0762E66E0862E67E0962E68E0A62EC6
:1000300069E0B62E66274F93EF93FF930F931F93BC
:100040001AE000E0010F449131960A95E9F74491D6
:1000500048BB1F910F91FF91EF914F91092D4FD008
:1000600002BB5CD04F93EF93FF930F931F931AE063
:1000700001E0010F449131960A95E9F7449148BB9C
:100080001F910F91FF91EF914F91082D38D002BB36
:1000900045D04F93EF93FF930F931F931AE002E025
:1000A000010F449131960A95E9F7449148BB1F919D
:1000B0000F91FF91EF914F91072D21D002BB2ED0D0
:1000C0004F93EF93FF930F931F931AE003E0010FF9
:1000D000449131960A95E9F7449148BB1F910F91DD
:1000E000FF91EF914F91062D0AD002BB17D0A3CFFD
:1000F0003F065B4F666D7D077F6F020408104F93CC
:10010000EF93FF934491039531960A95E9F7319760
:100110004491042FFF91EF914F9108952F931F93D6
:100120008F939F938FEF9FEF899708F0FDCF21501A
:0E0130001040C1F79F918F911F912F9108955C
:00000001FF
