:020000020000FC
:1000000004E0202E03E0302E02E0402E01E0502ECE
:1000100002E0602E04E0702E08E0802E00E1902EB9
:100020001FEF17BB11BB41E050E03F931F93152D0D
:100030005F9239D0512E68BA332732BB52BA44D0BE
:100040005F901F913F913F931F93142D4F922BD0A0
:10005000412E78BA332732BB42BA36D04F901F9127
:100060003F913F931F93132D3F921DD0312E88BA9D
:10007000332732BB32BA28D03F901F913F913F9334
:100080001F93122D2F920FD0212E98BA332732BBF7
:1000900022BA1AD02F901F913F913AE02394231651
:1000A00021F62224C2CF0F93012FEEEBF0E00A9548
:1000B00012F03196FCCF0491102F0F9108953F0656
:1000C0005B4F666D7D07FF6F4F935F938F939F9399
:1000D0008FEF9FEF899708F0FDCF51504040C1F757
:0A00E0009F918F915F914F91089559
:00000001FF
